:1000000072C000009EC000009CC000009AC00000AA
:1000100098C0000096C0000094C0000092C000008C
:1000200090C000008EC000008CC000008AC000009C
:1000300088C0000086C0000084C0000082C00000AC
:1000400080C000007EC000007CC000007AC00000BC
:1000500078C0000076C0000074C000002FC500000A
:1000600070C000008DC100006FC200006AC00000B7
:1000700068C0000066C0000064C0000062C00000EC
:1000800060C000005EC000005CC000005AC00000FC
:10009000AAC1000098C2000054C0000052C0000075
:1000A00050C000004EC000004CC000004AC000001C
:1000B00048C0000046C0000044C0000042C000002C
:1000C00040C000003EC000003CC00000BFC10000B6
:1000D000B9C2000036C00000ECC10000F2C200004E
:1000E00030C000001F0411241FBECFEFD1E2DEBFDD
:1000F000CDBF00E00CBF12E0A0E0B2E0E4E6FCE01F
:1001000000E00BBF02C007900D92AC31B107D9F7E8
:1001100024E0ACE1B2E001C01D92AD3CB207E1F7D2
:1001200010E0C6EED0E000E005C022970109FE0114
:100130000BBF92D5C43ED10780E00807B1F7B5D414
:100140008FC55ECF40E052EC61E070E082E892E063
:10015000F7C260E072E082E892E057C0CF92DF928F
:10016000EF92FF920F931F93CF93DF936C017A016D
:10017000EB01E60EF71E00E010E0CE15DF0561F0A2
:100180006991D601ED91FC910190F081E02DC601BD
:100190001995080F191FF1CFC801DF91CF911F9159
:1001A0000F91FF90EF90DF90CF900895611571054A
:1001B00081F0DB010D900020E9F7AD0141505109BC
:1001C000461B570BDC01ED91FC910280F381E02D81
:1001D000199480E090E00895DC01ED91FC9101908C
:1001E000F081E02D19940F931F93CF93DF93EC01CF
:1001F0006DE0F2DF8C016AE0CE01EEDF800F911F2F
:10020000DF91CF911F910F9108950F931F93CF937B
:10021000DF93EC01CBDF8C01CE01E5DF800F911F76
:10022000DF91CF911F910F910895FC0124853585B1
:10023000F901E05CFF4F808191813296208131810C
:10024000821B930B8F7399270895FC0184859585F4
:10025000FC01E05CFF4F4081518132962081318169
:100260004217530741F00190F081E02DE80FF91F8C
:10027000808190E008958FEF9FEF0895FC018485C1
:100280009585FC01E05CFF4F4081518132962081D1
:1002900031814217530779F0A081B181A80FB91FAE
:1002A0008C91208131812F5F3F4F2F733327318312
:1002B000208390E008958FEF9FEF0895FC0181A1C6
:1002C000882329F0A489B5898C9186FFFBCF11A2E0
:1002D0000895CF93DF93FC0126853785D901A05C73
:1002E000BF4F8D919C91119701968F739927E901CA
:1002F000CE5BDF4F4881598184179507D9F30D9064
:10030000BC91A02DA20FB31F6C93A685B785A05CEE
:10031000BF4F11969C938E93A689B7892C9181E04B
:1003200090E0078C02C0880F991F0A94E2F7282BEF
:100330002C9381E081A30488F589E02D808180647D
:10034000808381E090E0DF91CF910895FB01E05C34
:10035000FF4F208131812F5F3F4F2F733327DB0108
:10036000AE5BBF4F4D915C912417350739F0A081EA
:10037000B181A60FB71F8C93318320830895089510
:100380001F920F920FB60F9211240BB60F922F935C
:100390003F934F935F936F937F938F939F93AF930D
:1003A000BF93EF93FF938091C00082FD06C08091C0
:1003B000C60060E874E0CADF02C08091C600FF9109
:1003C000EF91BF91AF919F918F917F916F915F91CD
:1003D0004F913F912F910F900BBE0F900FBE0F903A
:1003E0001F90189508951F920F920FB60F92112427
:1003F0000BB60F922F933F934F935F936F937F931F
:100400008F939F93AF93BF93EF93FF938091C80017
:1004100082FD06C08091CE0068EF73E097DF02C0D6
:100420008091CE00FF91EF91BF91AF919F918F91FD
:100430007F916F915F914F913F912F910F900BBEE4
:100440000F900FBE0F901F90189508951F920F9256
:100450000FB60F9211240BB60F922F933F934F9329
:100460005F936F937F938F939F93AF93BF93EF931C
:10047000FF938091D00082FD06C08091D60060E796
:1004800073E064DF02C08091D600FF91EF91BF91CD
:10049000AF919F918F917F916F915F914F913F911C
:1004A0002F910F900BBE0F900FBE0F901F901895BD
:1004B00008951F920F920FB60F9211240BB60F9250
:1004C0002F933F934F935F936F937F938F939F935C
:1004D000AF93BF93EF93FF938091300182FD06C0ED
:1004E0008091360168EE72E031DF02C08091360102
:1004F000FF91EF91BF91AF919F918F917F916F91FC
:100500005F914F913F912F910F900BBE0F900FBEB7
:100510000F901F90189582E892E087DE892B09F0F2
:100520002EDF80E692E081DE892B09F05BDF8EE32F
:1005300092E07BDE892B09F088DF8CE192E075DEAA
:10054000892B09F0B5CF08951F920F920FB60F9225
:1005500011240BB60F922F933F938F939F93EF939A
:10056000FF9320917C0430917D0480917E049091D2
:100570007F042817390731F48091C1008F7D809363
:10058000C10014C0E0917E04F0917F04E45CFB4F55
:10059000208180917E0490917F0401968F7399272A
:1005A00090937F0480937E042093C600FF91EF9187
:1005B0009F918F913F912F910F900BBE0F900FBE87
:1005C0000F901F9018951F920F920FB60F92112443
:1005D0000BB60F922F933F938F939F93EF93FF93BD
:1005E0002091F4033091F5038091F6039091F70385
:1005F0002817390731F48091C9008F7D8093C90095
:1006000014C0E091F603F091F703EC54FC4F208105
:100610008091F6039091F70301968F739927909339
:10062000F7038093F6032093CE00FF91EF919F9103
:100630008F913F912F910F900BBE0F900FBE0F9097
:100640001F9018951F920F920FB60F9211240BB6A0
:100650000F922F933F938F939F93EF93FF9320914C
:100660006C0330916D0380916E0390916F03281796
:10067000390731F48091D1008F7D8093D10014C06F
:10068000E0916E03F0916F03E45DFC4F2081809157
:100690006E0390916F0301968F73992790936F0368
:1006A00080936E032093D600FF91EF919F918F91DD
:1006B0003F912F910F900BBE0F900FBE0F901F9088
:1006C00018951F920F920FB60F9211240BB60F922E
:1006D0002F933F938F939F93EF93FF932091E40287
:1006E0003091E5028091E6029091E70228173907E0
:1006F00031F4809131018F7D8093310114C0E091FC
:10070000E602F091E702EC55FD4F20818091E60270
:100710009091E70201968F7399279093E702809357
:10072000E60220933601FF91EF919F918F913F91C7
:100730002F910F900BBE0F900FBE0F901F9018952A
:10074000CF92DF92EF92FF92CF93DF93EC016A0199
:100750007B01411581EE580761057105F1F0EC89C7
:10076000FD8981E090E008A002C0880F991F0A94DB
:10077000E2F7808360E079E08DE390E0A7019601E5
:1007800049D221503109410951095695479537956C
:100790002795211580E1380790F0EC89FD891082BA
:1007A00060E874E88EE190E0A701960133D2215011
:1007B0003109410951095695479537952795E8899B
:1007C000F9893083EA89FB89208319A2EE89FF89A0
:1007D000408181E090E09C010C8C02C0220F331F0D
:1007E0000A94E2F7422B4083EE89FF8940819C0105
:1007F0000D8C02C0220F331F0A94E2F7422B408374
:10080000EE89FF8940819C010E8C02C0220F331FAC
:100810000A94E2F7422B4083EE89FF8920810F8CF6
:1008200002C0880F991F0A94E2F780958223808383
:10083000DF91CF91FF90EF90DF90CF900895CF930D
:10084000109285021092840288EE93E0A0E0B0E05E
:100850008093860290938702A0938802B0938902C6
:100860002FE032E0309383022093820240E854E08C
:1008700050938F0240938E024CE354E050939102C8
:100880004093900245EC50E05093930240939202C3
:1008900044EC50E0509395024093940240EC50E0B9
:1008A000509397024093960241EC50E05093990286
:1008B0004093980242EC50E050939B0240939A027E
:1008C00046EC50E050939D0240939C02C4E0C093DC
:1008D0009E02F3E0F0939F02E7E0E093A00275E050
:1008E0007093A10261E06093A202109263021092E1
:1008F00062028093640290936502A0936602B093B3
:100900006702309361022093600248EF53E05093F6
:100910006D0240936C0244EB53E050936F0240939E
:100920006E024DEC50E050937102409370024CEC1B
:1009300050E0509373024093720248EC50E05093A1
:1009400075024093740249EC50E050937702409353
:1009500076024AEC50E050937902409378024EECD4
:1009600050E050937B0240937A02C0937C02F09354
:100970007D02E0937E0270937F026093800210926A
:100980004102109240028093420290934302A0934E
:100990004402B093450230933F0220933E0240E769
:1009A00053E050934B0240934A024CE253E0509381
:1009B0004D0240934C0245ED50E050934F0240935E
:1009C0004E0244ED50E0509351024093500240EDEE
:1009D00050E0509353024093520241ED50E0509347
:1009E00055024093540242ED50E050935702409319
:1009F000560246ED50E05093590240935802C0937E
:100A00005A02F0935B02E0935C0270935D02609384
:100A10005E0210921F0210921E0280932002909399
:100A20002102A0932202B093230230931D0220934F
:100A30001C0288EE92E0909329028093280284EAB7
:100A400092E090932B0280932A0285E391E09093A9
:100A50002D0280932C0284E391E090932F028093E7
:100A60002E0280E391E0909331028093300281E383
:100A700091E0909333028093320282E391E090936D
:100A800035028093340286E391E09093370280939D
:100A90003602C0933802F0933902E0933A02709321
:100AA0003B0260933C02CF91089552D04BDBCBE8E0
:100AB000D2E04FDB2097E9F32EDDFBCF1F920F92A0
:100AC0000FB60F9211242F933F938F939F93AF9361
:100AD000BF938091C5049091C604A091C704B091C2
:100AE000C8043091C40423E0230F2D3720F401966D
:100AF000A11DB11D05C026E8230F0296A11DB11D41
:100B00002093C4048093C5049093C604A093C704A3
:100B1000B093C8048091C9049091CA04A091CB04F9
:100B2000B091CC040196A11DB11D8093C90490938E
:100B3000CA04A093CB04B093CC04BF91AF919F9112
:100B40008F913F912F910F900FBE0F901F9018958E
:100B5000789484B5826084BD84B5816084BD85B598
:100B6000826085BD85B5816085BDEEE6F0E080815F
:100B700081608083E1E8F0E0108280818260808380
:100B8000808181608083E0E8F0E080818160808303
:100B9000E1EBF0E0808184608083E0EBF0E0808135
:100BA00081608083E1E9F0E08081826080838081E0
:100BB00081608083E0E9F0E0808181608083E1EA08
:100BC000F0E0808182608083808181608083E0EAC0
:100BD000F0E0808181608083E1E2F1E080818260E9
:100BE0008083808181608083E0E2F1E080818160A8
:100BF0008083EAE7F0E08081846080838081826086
:100C0000808380818160808380818068808310926E
:100C1000C1000895A1E21A2EAA1BBB1BFD010DC045
:100C2000AA1FBB1FEE1FFF1FA217B307E407F5079C
:100C300020F0A21BB30BE40BF50B661F771F881F78
:100C4000991F1A9469F760957095809590959B010E
:100C5000AC01BD01CF0108950790F691E02D1994E4
:040C6000F894FFCF36
:100C64007B2254657374223A357D000000000069CC
:0C0C740001AE0015013E0125015E0100EB
:00000001FF
